{
  "_format": "hh-sol-artifact-1",
  "contractName": "RockPaperScissors",
  "sourceName": "contracts/RockPaperScissors.sol",
  "abi": [
    {
      "inputs": [],
      "stateMutability": "nonpayable",
      "type": "constructor"
    },
    {
      "anonymous": false,
      "inputs": [
        {
          "indexed": false,
          "internalType": "uint256",
          "name": "amount",
          "type": "uint256"
        }
      ],
      "name": "CreatorFeesWithdrawn",
      "type": "event"
    },
    {
      "anonymous": false,
      "inputs": [
        {
          "indexed": true,
          "internalType": "address",
          "name": "receiver",
          "type": "address"
        },
        {
          "indexed": false,
          "internalType": "uint256",
          "name": "amount",
          "type": "uint256"
        }
      ],
      "name": "EmergencyWithdrawal",
      "type": "event"
    },
    {
      "anonymous": false,
      "inputs": [
        {
          "indexed": false,
          "internalType": "uint256",
          "name": "newAmount",
          "type": "uint256"
        }
      ],
      "name": "GameBankSynced",
      "type": "event"
    },
    {
      "anonymous": false,
      "inputs": [
        {
          "indexed": true,
          "internalType": "address",
          "name": "player",
          "type": "address"
        },
        {
          "indexed": false,
          "internalType": "enum RockPaperScissors.Move",
          "name": "playerMove",
          "type": "uint8"
        },
        {
          "indexed": false,
          "internalType": "enum RockPaperScissors.Move",
          "name": "contractMove",
          "type": "uint8"
        },
        {
          "indexed": false,
          "internalType": "string",
          "name": "result",
          "type": "string"
        },
        {
          "indexed": false,
          "internalType": "uint256",
          "name": "netWin",
          "type": "uint256"
        },
        {
          "indexed": false,
          "internalType": "bytes32",
          "name": "proofHash",
          "type": "bytes32"
        }
      ],
      "name": "GamePlayed",
      "type": "event"
    },
    {
      "anonymous": false,
      "inputs": [
        {
          "indexed": true,
          "internalType": "address",
          "name": "oldImpl",
          "type": "address"
        },
        {
          "indexed": true,
          "internalType": "address",
          "name": "newImpl",
          "type": "address"
        }
      ],
      "name": "ImplementationUpdated",
      "type": "event"
    },
    {
      "anonymous": false,
      "inputs": [
        {
          "indexed": false,
          "internalType": "bool",
          "name": "status",
          "type": "bool"
        }
      ],
      "name": "Paused",
      "type": "event"
    },
    {
      "anonymous": false,
      "inputs": [
        {
          "indexed": true,
          "internalType": "address",
          "name": "player",
          "type": "address"
        },
        {
          "indexed": false,
          "internalType": "uint256",
          "name": "index",
          "type": "uint256"
        },
        {
          "indexed": false,
          "internalType": "uint256",
          "name": "amount",
          "type": "uint256"
        }
      ],
      "name": "RewardClaimed",
      "type": "event"
    },
    {
      "anonymous": false,
      "inputs": [
        {
          "indexed": false,
          "internalType": "bool",
          "name": "enabled",
          "type": "bool"
        }
      ],
      "name": "UpgradeStatusChanged",
      "type": "event"
    },
    {
      "stateMutability": "payable",
      "type": "fallback"
    },
    {
      "inputs": [],
      "name": "COOLDOWN",
      "outputs": [
        {
          "internalType": "uint256",
          "name": "",
          "type": "uint256"
        }
      ],
      "stateMutability": "view",
      "type": "function"
    },
    {
      "inputs": [],
      "name": "MAX_BET_AMOUNT",
      "outputs": [
        {
          "internalType": "uint256",
          "name": "",
          "type": "uint256"
        }
      ],
      "stateMutability": "view",
      "type": "function"
    },
    {
      "inputs": [],
      "name": "MAX_CONTRACT_BALANCE",
      "outputs": [
        {
          "internalType": "uint256",
          "name": "",
          "type": "uint256"
        }
      ],
      "stateMutability": "view",
      "type": "function"
    },
    {
      "inputs": [],
      "name": "MAX_WITHDRAWAL_AMOUNT",
      "outputs": [
        {
          "internalType": "uint256",
          "name": "",
          "type": "uint256"
        }
      ],
      "stateMutability": "view",
      "type": "function"
    },
    {
      "inputs": [],
      "name": "addFunds",
      "outputs": [],
      "stateMutability": "payable",
      "type": "function"
    },
    {
      "inputs": [],
      "name": "claimAllRewards",
      "outputs": [],
      "stateMutability": "nonpayable",
      "type": "function"
    },
    {
      "inputs": [
        {
          "internalType": "uint256",
          "name": "index",
          "type": "uint256"
        }
      ],
      "name": "claimReward",
      "outputs": [],
      "stateMutability": "nonpayable",
      "type": "function"
    },
    {
      "inputs": [
        {
          "internalType": "bytes32",
          "name": "moveHash",
          "type": "bytes32"
        },
        {
          "internalType": "enum RockPaperScissors.BetTier",
          "name": "tier",
          "type": "uint8"
        }
      ],
      "name": "commitMove",
      "outputs": [],
      "stateMutability": "payable",
      "type": "function"
    },
    {
      "inputs": [],
      "name": "creatorFees",
      "outputs": [
        {
          "internalType": "uint256",
          "name": "",
          "type": "uint256"
        }
      ],
      "stateMutability": "view",
      "type": "function"
    },
    {
      "inputs": [],
      "name": "emergencyWithdraw",
      "outputs": [],
      "stateMutability": "nonpayable",
      "type": "function"
    },
    {
      "inputs": [],
      "name": "gameBank",
      "outputs": [
        {
          "internalType": "uint256",
          "name": "",
          "type": "uint256"
        }
      ],
      "stateMutability": "view",
      "type": "function"
    },
    {
      "inputs": [
        {
          "internalType": "bytes32",
          "name": "",
          "type": "bytes32"
        }
      ],
      "name": "gameProofs",
      "outputs": [
        {
          "internalType": "uint256",
          "name": "blockNumber",
          "type": "uint256"
        },
        {
          "internalType": "uint256",
          "name": "timestamp",
          "type": "uint256"
        },
        {
          "internalType": "bytes32",
          "name": "blockHash",
          "type": "bytes32"
        },
        {
          "internalType": "bytes32",
          "name": "randomnessProof",
          "type": "bytes32"
        },
        {
          "internalType": "enum RockPaperScissors.Move",
          "name": "contractMove",
          "type": "uint8"
        },
        {
          "internalType": "enum RockPaperScissors.Move",
          "name": "playerMove",
          "type": "uint8"
        },
        {
          "internalType": "address",
          "name": "player",
          "type": "address"
        }
      ],
      "stateMutability": "view",
      "type": "function"
    },
    {
      "inputs": [],
      "name": "getContractBalance",
      "outputs": [
        {
          "internalType": "uint256",
          "name": "",
          "type": "uint256"
        }
      ],
      "stateMutability": "view",
      "type": "function"
    },
    {
      "inputs": [],
      "name": "getGameBank",
      "outputs": [
        {
          "internalType": "uint256",
          "name": "",
          "type": "uint256"
        }
      ],
      "stateMutability": "view",
      "type": "function"
    },
    {
      "inputs": [
        {
          "internalType": "bytes32",
          "name": "proofHash",
          "type": "bytes32"
        }
      ],
      "name": "getGameDetails",
      "outputs": [
        {
          "internalType": "uint256",
          "name": "blockNumber",
          "type": "uint256"
        },
        {
          "internalType": "uint256",
          "name": "timestamp",
          "type": "uint256"
        },
        {
          "internalType": "address",
          "name": "player",
          "type": "address"
        },
        {
          "internalType": "enum RockPaperScissors.Move",
          "name": "playerMove",
          "type": "uint8"
        },
        {
          "internalType": "enum RockPaperScissors.Move",
          "name": "contractMove",
          "type": "uint8"
        },
        {
          "internalType": "bool",
          "name": "playerWon",
          "type": "bool"
        }
      ],
      "stateMutability": "view",
      "type": "function"
    },
    {
      "inputs": [
        {
          "internalType": "address",
          "name": "player",
          "type": "address"
        }
      ],
      "name": "getPendingRewardCount",
      "outputs": [
        {
          "internalType": "uint256",
          "name": "",
          "type": "uint256"
        }
      ],
      "stateMutability": "view",
      "type": "function"
    },
    {
      "inputs": [],
      "name": "implementation",
      "outputs": [
        {
          "internalType": "address",
          "name": "",
          "type": "address"
        }
      ],
      "stateMutability": "view",
      "type": "function"
    },
    {
      "inputs": [],
      "name": "isPaused",
      "outputs": [
        {
          "internalType": "bool",
          "name": "",
          "type": "bool"
        }
      ],
      "stateMutability": "view",
      "type": "function"
    },
    {
      "inputs": [
        {
          "internalType": "address",
          "name": "player",
          "type": "address"
        }
      ],
      "name": "lastPlayTimestamp",
      "outputs": [
        {
          "internalType": "uint256",
          "name": "",
          "type": "uint256"
        }
      ],
      "stateMutability": "view",
      "type": "function"
    },
    {
      "inputs": [],
      "name": "owner",
      "outputs": [
        {
          "internalType": "address",
          "name": "",
          "type": "address"
        }
      ],
      "stateMutability": "view",
      "type": "function"
    },
    {
      "inputs": [
        {
          "internalType": "address",
          "name": "",
          "type": "address"
        },
        {
          "internalType": "uint256",
          "name": "",
          "type": "uint256"
        }
      ],
      "name": "pendingRewards",
      "outputs": [
        {
          "internalType": "uint256",
          "name": "amount",
          "type": "uint256"
        },
        {
          "internalType": "bool",
          "name": "claimed",
          "type": "bool"
        }
      ],
      "stateMutability": "view",
      "type": "function"
    },
    {
      "inputs": [
        {
          "internalType": "enum RockPaperScissors.BetTier",
          "name": "tier",
          "type": "uint8"
        },
        {
          "internalType": "enum RockPaperScissors.Move",
          "name": "playerMove",
          "type": "uint8"
        }
      ],
      "name": "play",
      "outputs": [],
      "stateMutability": "payable",
      "type": "function"
    },
    {
      "inputs": [
        {
          "internalType": "enum RockPaperScissors.Move",
          "name": "playerMove",
          "type": "uint8"
        },
        {
          "internalType": "enum RockPaperScissors.BetTier",
          "name": "tier",
          "type": "uint8"
        }
      ],
      "name": "playGame",
      "outputs": [],
      "stateMutability": "payable",
      "type": "function"
    },
    {
      "inputs": [
        {
          "internalType": "address",
          "name": "",
          "type": "address"
        }
      ],
      "name": "playerStats",
      "outputs": [
        {
          "internalType": "uint256",
          "name": "lastPlayTime",
          "type": "uint256"
        },
        {
          "internalType": "uint256",
          "name": "totalWins",
          "type": "uint256"
        }
      ],
      "stateMutability": "view",
      "type": "function"
    },
    {
      "inputs": [
        {
          "internalType": "address",
          "name": "player",
          "type": "address"
        }
      ],
      "name": "playerTotalWins",
      "outputs": [
        {
          "internalType": "uint256",
          "name": "",
          "type": "uint256"
        }
      ],
      "stateMutability": "view",
      "type": "function"
    },
    {
      "inputs": [
        {
          "internalType": "enum RockPaperScissors.Move",
          "name": "playerMove",
          "type": "uint8"
        },
        {
          "internalType": "bytes32",
          "name": "salt",
          "type": "bytes32"
        }
      ],
      "name": "revealMove",
      "outputs": [],
      "stateMutability": "nonpayable",
      "type": "function"
    },
    {
      "inputs": [
        {
          "internalType": "bool",
          "name": "_paused",
          "type": "bool"
        }
      ],
      "name": "setPaused",
      "outputs": [],
      "stateMutability": "nonpayable",
      "type": "function"
    },
    {
      "inputs": [
        {
          "internalType": "bool",
          "name": "enabled",
          "type": "bool"
        }
      ],
      "name": "setUpgradeEnabled",
      "outputs": [],
      "stateMutability": "nonpayable",
      "type": "function"
    },
    {
      "inputs": [],
      "name": "syncGameBank",
      "outputs": [],
      "stateMutability": "nonpayable",
      "type": "function"
    },
    {
      "inputs": [
        {
          "internalType": "enum RockPaperScissors.BetTier",
          "name": "",
          "type": "uint8"
        }
      ],
      "name": "tierToAmount",
      "outputs": [
        {
          "internalType": "uint256",
          "name": "",
          "type": "uint256"
        }
      ],
      "stateMutability": "view",
      "type": "function"
    },
    {
      "inputs": [
        {
          "internalType": "address",
          "name": "newImplementation",
          "type": "address"
        }
      ],
      "name": "updateImplementation",
      "outputs": [],
      "stateMutability": "nonpayable",
      "type": "function"
    },
    {
      "inputs": [
        {
          "internalType": "enum RockPaperScissors.BetTier",
          "name": "tier",
          "type": "uint8"
        },
        {
          "internalType": "uint256",
          "name": "amount",
          "type": "uint256"
        }
      ],
      "name": "updateTierAmount",
      "outputs": [],
      "stateMutability": "nonpayable",
      "type": "function"
    },
    {
      "inputs": [],
      "name": "upgradeEnabled",
      "outputs": [
        {
          "internalType": "bool",
          "name": "",
          "type": "bool"
        }
      ],
      "stateMutability": "view",
      "type": "function"
    },
    {
      "inputs": [
        {
          "internalType": "bytes32",
          "name": "proofHash",
          "type": "bytes32"
        }
      ],
      "name": "verifyGameProof",
      "outputs": [
        {
          "internalType": "bool",
          "name": "isValid",
          "type": "bool"
        },
        {
          "internalType": "string",
          "name": "details",
          "type": "string"
        }
      ],
      "stateMutability": "view",
      "type": "function"
    },
    {
      "inputs": [],
      "name": "withdrawCreatorFees",
      "outputs": [],
      "stateMutability": "nonpayable",
      "type": "function"
    },
    {
      "stateMutability": "payable",
      "type": "receive"
    }
  ],
  "bytecode": "0x60806040526000600360006101000a81548160ff0219169083151502179055506000600360156101000a81548160ff0219169083151502179055503480156200004757600080fd5b50336000806101000a81548173ffffffffffffffffffffffffffffffffffffffff021916908373ffffffffffffffffffffffffffffffffffffffff16021790555030600360016101000a81548173ffffffffffffffffffffffffffffffffffffffff021916908373ffffffffffffffffffffffffffffffffffffffff1602179055506611c37937e0800060046000806004811115620000eb57620000ea62000240565b5b60048111156200010057620000ff62000240565b5b815260200190815260200160002081905550662386f26fc10000600460006001600481111562000135576200013462000240565b5b60048111156200014a576200014962000240565b5b8152602001908152602001600020819055506658d15e1762800060046000600260048111156200017f576200017e62000240565b5b600481111562000194576200019362000240565b5b81526020019081526020016000208190555066b1a2bc2ec500006004600060036004811115620001c957620001c862000240565b5b6004811115620001de57620001dd62000240565b5b81526020019081526020016000208190555067016345785d8a00006004600060048081111562000213576200021262000240565b5b600481111562000228576200022762000240565b5b8152602001908152602001600020819055506200026f565b7f4e487b7100000000000000000000000000000000000000000000000000000000600052602160045260246000fd5b614458806200027f6000396000f3fe6080604052600436106102085760003560e01c80638cf0e21e11610118578063c85e3499116100a0578063e1cd04b41161006f578063e1cd04b414610817578063e7c435a71461082e578063e802c36f1461084a578063e8f4d28d14610866578063ed7ec749146108a357610227565b8063c85e34991461075a578063c97a0dd014610785578063cdafbbb6146107c2578063db2e21bc1461080057610227565b8063a26759cb116100e7578063a26759cb146106a8578063a2724a4d146106b2578063a8f7d442146106dd578063ae169a5014610706578063b187bd261461072f57610227565b80638cf0e21e146105ec5780638da5cb5b146106175780639ad30f6d146106425780639d140fec1461067f57610227565b80635e60cbc11161019b5780636bc079c61161016a5780636bc079c6146105005780636f9fb98a1461051757806377422035146105425780638283d6f91461057f5780638a1fa029146105aa57610227565b80635e60cbc1146104305780636099ecb21461045957806363812d5b146104975780636694ba61146104d557610227565b80631c0e8c42116101d75780631c0e8c421461036c578063309167f5146103af5780635c60da1b146103da5780635e0fd43c1461040557610227565b8063025b22bc146102d8578063058c8c2e146103015780630b83a7271461032c57806316c38b3c1461034357610227565b3661022757346002600082825461021f9190612efb565b925050819055005b3073ffffffffffffffffffffffffffffffffffffffff16600360019054906101000a900473ffffffffffffffffffffffffffffffffffffffff1673ffffffffffffffffffffffffffffffffffffffff16141580156102915750600360159054906101000a900460ff165b156102be5736600080376000803660006003545af43d6000803e80600081146102b9573d6000f35b3d6000fd5b34600260008282546102d09190612efb565b925050819055005b3480156102e457600080fd5b506102ff60048036038101906102fa9190612f92565b6108bf565b005b34801561030d57600080fd5b50610316610b61565b6040516103239190612fce565b60405180910390f35b34801561033857600080fd5b50610341610b6d565b005b34801561034f57600080fd5b5061036a60048036038101906103659190613021565b610ef2565b005b34801561037857600080fd5b50610393600480360381019061038e9190613084565b610fd4565b6040516103a69796959493929190613146565b60405180910390f35b3480156103bb57600080fd5b506103c4611050565b6040516103d19190612fce565b60405180910390f35b3480156103e657600080fd5b506103ef61105c565b6040516103fc91906131b5565b60405180910390f35b34801561041157600080fd5b5061041a611082565b6040516104279190612fce565b60405180910390f35b34801561043c57600080fd5b5061045760048036038101906104529190613221565b61108c565b005b34801561046557600080fd5b50610480600480360381019061047b9190613261565b6111a5565b60405161048e9291906132b0565b60405180910390f35b3480156104a357600080fd5b506104be60048036038101906104b99190613084565b6111f3565b6040516104cc929190613369565b60405180910390f35b3480156104e157600080fd5b506104ea611534565b6040516104f79190612fce565b60405180910390f35b34801561050c57600080fd5b5061051561153a565b005b34801561052357600080fd5b5061052c611623565b6040516105399190612fce565b60405180910390f35b34801561054e57600080fd5b5061056960048036038101906105649190613399565b61162b565b6040516105769190612fce565b60405180910390f35b34801561058b57600080fd5b50610594611643565b6040516105a19190612fce565b60405180910390f35b3480156105b657600080fd5b506105d160048036038101906105cc9190613084565b611650565b6040516105e3969594939291906133c6565b60405180910390f35b3480156105f857600080fd5b506106016117f7565b60405161060e9190613427565b60405180910390f35b34801561062357600080fd5b5061062c61180a565b60405161063991906131b5565b60405180910390f35b34801561064e57600080fd5b5061066960048036038101906106649190612f92565b61182e565b6040516106769190612fce565b60405180910390f35b34801561068b57600080fd5b506106a660048036038101906106a19190613021565b61187a565b005b6106b061195c565b005b3480156106be57600080fd5b506106c7611977565b6040516106d49190612fce565b60405180910390f35b3480156106e957600080fd5b5061070460048036038101906106ff9190613467565b61197c565b005b34801561071257600080fd5b5061072d600480360381019061072891906134a7565b611a07565b005b34801561073b57600080fd5b50610744611d84565b6040516107519190613427565b60405180910390f35b34801561076657600080fd5b5061076f611d97565b60405161077c9190612fce565b60405180910390f35b34801561079157600080fd5b506107ac60048036038101906107a79190612f92565b611d9d565b6040516107b99190612fce565b60405180910390f35b3480156107ce57600080fd5b506107e960048036038101906107e49190612f92565b611de9565b6040516107f79291906134d4565b60405180910390f35b34801561080c57600080fd5b50610815611e0d565b005b34801561082357600080fd5b5061082c612107565b005b610848600480360381019061084391906134fd565b6123c2565b005b610864600480360381019061085f919061353d565b61244d565b005b34801561087257600080fd5b5061088d60048036038101906108889190612f92565b6124d8565b60405161089a9190612fce565b60405180910390f35b6108bd60048036038101906108b8919061357d565b612524565b005b60008054906101000a900473ffffffffffffffffffffffffffffffffffffffff1673ffffffffffffffffffffffffffffffffffffffff163373ffffffffffffffffffffffffffffffffffffffff161461094d576040517f08c379a000000000000000000000000000000000000000000000000000000000815260040161094490613609565b60405180910390fd5b600360159054906101000a900460ff1661099c576040517f08c379a000000000000000000000000000000000000000000000000000000000815260040161099390613675565b60405180910390fd5b600073ffffffffffffffffffffffffffffffffffffffff168173ffffffffffffffffffffffffffffffffffffffff1603610a0b576040517f08c379a0000000000000000000000000000000000000000000000000000000008152600401610a02906136e1565b60405180910390fd5b600360019054906101000a900473ffffffffffffffffffffffffffffffffffffffff1673ffffffffffffffffffffffffffffffffffffffff168173ffffffffffffffffffffffffffffffffffffffff1603610a9b576040517f08c379a0000000000000000000000000000000000000000000000000000000008152600401610a929061374d565b60405180910390fd5b6000600360019054906101000a900473ffffffffffffffffffffffffffffffffffffffff16905081600360016101000a81548173ffffffffffffffffffffffffffffffffffffffff021916908373ffffffffffffffffffffffffffffffffffffffff1602179055508173ffffffffffffffffffffffffffffffffffffffff168173ffffffffffffffffffffffffffffffffffffffff167faa3f731066a578e5f39b4215468d826cdd15373cbc0dfc9cb9bdc649718ef7da60405160405180910390a35050565b674563918244f4000081565b600360169054906101000a900460ff1615610bbd576040517f08c379a0000000000000000000000000000000000000000000000000000000008152600401610bb4906137b9565b60405180910390fd5b6001600360166101000a81548160ff0219169083151502179055506000600660003373ffffffffffffffffffffffffffffffffffffffff1673ffffffffffffffffffffffffffffffffffffffff16815260200190815260200160002090506000805b8280549050811015610ce457828181548110610c3e57610c3d6137d9565b5b906000526020600020906002020160010160009054906101000a900460ff16610cd157828181548110610c7457610c736137d9565b5b90600052602060002090600202016000015482610c919190612efb565b91506001838281548110610ca857610ca76137d9565b5b906000526020600020906002020160010160006101000a81548160ff0219169083151502179055505b8080610cdc90613808565b915050610c1f565b5060008111610d28576040517f08c379a0000000000000000000000000000000000000000000000000000000008152600401610d1f9061389c565b60405180910390fd5b80471015610d6b576040517f08c379a0000000000000000000000000000000000000000000000000000000008152600401610d6290613908565b60405180910390fd5b674563918244f40000811115610db6576040517f08c379a0000000000000000000000000000000000000000000000000000000008152600401610dad9061399a565b60405180910390fd5b60003373ffffffffffffffffffffffffffffffffffffffff1682604051610ddc906139eb565b60006040518083038185875af1925050503d8060008114610e19576040519150601f19603f3d011682016040523d82523d6000602084013e610e1e565b606091505b5050905080610e62576040517f08c379a0000000000000000000000000000000000000000000000000000000008152600401610e5990613a4c565b60405180910390fd5b3373ffffffffffffffffffffffffffffffffffffffff167ff01da32686223933d8a18a391060918c7f11a3648639edd87ae013e2e27317437fffffffffffffffffffffffffffffffffffffffffffffffffffffffffffffffff84604051610eca9291906134d4565b60405180910390a25050506000600360166101000a81548160ff021916908315150217905550565b60008054906101000a900473ffffffffffffffffffffffffffffffffffffffff1673ffffffffffffffffffffffffffffffffffffffff163373ffffffffffffffffffffffffffffffffffffffff1614610f80576040517f08c379a0000000000000000000000000000000000000000000000000000000008152600401610f7790613609565b60405180910390fd5b80600360006101000a81548160ff0219169083151502179055507f0e2fb031ee032dc02d8011dc50b816eb450cf856abd8261680dac74f72165bd281604051610fc99190613427565b60405180910390a150565b60076020528060005260406000206000915090508060000154908060010154908060020154908060030154908060040160009054906101000a900460ff16908060040160019054906101000a900460ff16908060040160029054906101000a900473ffffffffffffffffffffffffffffffffffffffff16905087565b6706f05b59d3b2000081565b600360019054906101000a900473ffffffffffffffffffffffffffffffffffffffff1681565b6000600254905090565b60008054906101000a900473ffffffffffffffffffffffffffffffffffffffff1673ffffffffffffffffffffffffffffffffffffffff163373ffffffffffffffffffffffffffffffffffffffff161461111a576040517f08c379a000000000000000000000000000000000000000000000000000000000815260040161111190613609565b60405180910390fd5b6706f05b59d3b20000811115611165576040517f08c379a000000000000000000000000000000000000000000000000000000000815260040161115c90613ade565b60405180910390fd5b806004600084600481111561117d5761117c6130c0565b5b600481111561118f5761118e6130c0565b5b8152602001908152602001600020819055505050565b600660205281600052604060002081815481106111c157600080fd5b9060005260206000209060020201600091509150508060000154908060010160009054906101000a900460ff16905082565b600060606000600760008581526020019081526020016000206040518060e0016040529081600082015481526020016001820154815260200160028201548152602001600382015481526020016004820160009054906101000a900460ff166002811115611264576112636130c0565b5b6002811115611276576112756130c0565b5b81526020016004820160019054906101000a900460ff16600281111561129f5761129e6130c0565b5b60028111156112b1576112b06130c0565b5b81526020016004820160029054906101000a900473ffffffffffffffffffffffffffffffffffffffff1673ffffffffffffffffffffffffffffffffffffffff1673ffffffffffffffffffffffffffffffffffffffff16815250509050600081602001510361135b5760006040518060400160405280600f81526020017f50726f6f66206e6f7420666f756e640000000000000000000000000000000000815250925092505061152f565b43610100826000015161136e9190612efb565b101580156113855750806040015181600001514014155b156113cc5760006040518060400160405280601381526020017f426c6f636b2068617368206d69736d6174636800000000000000000000000000815250925092505061152f565b4361010082600001516113df9190612efb565b101561140a5760016040518060600160405280602f81526020016143f4602f9139925092505061152f565b600081604001514483602001518460c00151478660a0015160405160200161143796959493929190613bbe565b60405160208183030381529060405280519060200120905060008160001c905060006003826114669190613c5d565b6002811115611478576114776130c0565b5b905083608001516002811115611491576114906130c0565b5b8160028111156114a4576114a36130c0565b5b146114ee5760006040518060400160405280601881526020017f4d6f76652067656e65726174696f6e206d69736d617463680000000000000000815250955095505050505061152f565b60016040518060400160405280601d81526020017f50726f6f6620766572696669636174696f6e207375636365737366756c00000081525095509550505050505b915091565b60015481565b60008054906101000a900473ffffffffffffffffffffffffffffffffffffffff1673ffffffffffffffffffffffffffffffffffffffff163373ffffffffffffffffffffffffffffffffffffffff16146115c8576040517f08c379a00000000000000000000000000000000000000000000000000000000081526004016115bf90613609565b60405180910390fd5b60004790506000600154826115dd9190613c8e565b9050806002819055507f5fb1cb0d351aff23a52094d8158e887e6418a25c742de0bf3e0cdfeb9d0b1a6f6002546040516116179190612fce565b60405180910390a15050565b600047905090565b60046020528060005260406000206000915090505481565b68056bc75e2d6310000081565b6000806000806000806000600760008981526020019081526020016000206040518060e0016040529081600082015481526020016001820154815260200160028201548152602001600382015481526020016004820160009054906101000a900460ff1660028111156116c6576116c56130c0565b5b60028111156116d8576116d76130c0565b5b81526020016004820160019054906101000a900460ff166002811115611701576117006130c0565b5b6002811115611713576117126130c0565b5b81526020016004820160029054906101000a900473ffffffffffffffffffffffffffffffffffffffff1673ffffffffffffffffffffffffffffffffffffffff1673ffffffffffffffffffffffffffffffffffffffff1681525050905060008160200151116117b6576040517f08c379a00000000000000000000000000000000000000000000000000000000081526004016117ad90613d0e565b60405180910390fd5b806000015181602001518260c001518360a0015184608001516117e18660a001518760800151612da5565b9650965096509650965096505091939550919395565b600360159054906101000a900460ff1681565b60008054906101000a900473ffffffffffffffffffffffffffffffffffffffff1681565b6000600560008373ffffffffffffffffffffffffffffffffffffffff1673ffffffffffffffffffffffffffffffffffffffff168152602001908152602001600020600101549050919050565b60008054906101000a900473ffffffffffffffffffffffffffffffffffffffff1673ffffffffffffffffffffffffffffffffffffffff163373ffffffffffffffffffffffffffffffffffffffff1614611908576040517f08c379a00000000000000000000000000000000000000000000000000000000081526004016118ff90613609565b60405180910390fd5b80600360156101000a81548160ff0219169083151502179055507f160cf1407e48a5f810cb201e036aefe6c40b4b78b14ac192551af8d956eafd06816040516119519190613427565b60405180910390a150565b346002600082825461196e9190612efb565b92505081905550565b600f81565b600360009054906101000a900460ff16156119cc576040517f08c379a00000000000000000000000000000000000000000000000000000000081526004016119c390613d7a565b60405180910390fd5b6040517f08c379a00000000000000000000000000000000000000000000000000000000081526004016119fe90613e0c565b60405180910390fd5b600360169054906101000a900460ff1615611a57576040517f08c379a0000000000000000000000000000000000000000000000000000000008152600401611a4e906137b9565b60405180910390fd5b6001600360166101000a81548160ff021916908315150217905550600660003373ffffffffffffffffffffffffffffffffffffffff1673ffffffffffffffffffffffffffffffffffffffff168152602001908152602001600020805490508110611af6576040517f08c379a0000000000000000000000000000000000000000000000000000000008152600401611aed90613e78565b60405180910390fd5b6000600660003373ffffffffffffffffffffffffffffffffffffffff1673ffffffffffffffffffffffffffffffffffffffff1681526020019081526020016000208281548110611b4957611b486137d9565b5b906000526020600020906002020190508060010160009054906101000a900460ff1615611bab576040517f08c379a0000000000000000000000000000000000000000000000000000000008152600401611ba290613ee4565b60405180910390fd5b8060000154471015611bf2576040517f08c379a0000000000000000000000000000000000000000000000000000000008152600401611be990613908565b60405180910390fd5b674563918244f4000081600001541115611c41576040517f08c379a0000000000000000000000000000000000000000000000000000000008152600401611c389061399a565b60405180910390fd5b60018160010160006101000a81548160ff02191690831515021790555060008160000154905060003373ffffffffffffffffffffffffffffffffffffffff1682604051611c8d906139eb565b60006040518083038185875af1925050503d8060008114611cca576040519150601f19603f3d011682016040523d82523d6000602084013e611ccf565b606091505b5050905080611d13576040517f08c379a0000000000000000000000000000000000000000000000000000000008152600401611d0a90613a4c565b60405180910390fd5b3373ffffffffffffffffffffffffffffffffffffffff167ff01da32686223933d8a18a391060918c7f11a3648639edd87ae013e2e27317438584604051611d5b9291906134d4565b60405180910390a25050506000600360166101000a81548160ff02191690831515021790555050565b600360009054906101000a900460ff1681565b60025481565b6000600660008373ffffffffffffffffffffffffffffffffffffffff1673ffffffffffffffffffffffffffffffffffffffff168152602001908152602001600020805490509050919050565b60056020528060005260406000206000915090508060000154908060010154905082565b60008054906101000a900473ffffffffffffffffffffffffffffffffffffffff1673ffffffffffffffffffffffffffffffffffffffff163373ffffffffffffffffffffffffffffffffffffffff1614611e9b576040517f08c379a0000000000000000000000000000000000000000000000000000000008152600401611e9290613609565b60405180910390fd5b600360169054906101000a900460ff1615611eeb576040517f08c379a0000000000000000000000000000000000000000000000000000000008152600401611ee2906137b9565b60405180910390fd5b6001600360166101000a81548160ff021916908315150217905550600360009054906101000a900460ff16611f55576040517f08c379a0000000000000000000000000000000000000000000000000000000008152600401611f4c90613f76565b60405180910390fd5b600047905060008111611f9d576040517f08c379a0000000000000000000000000000000000000000000000000000000008152600401611f9490613fe2565b60405180910390fd5b6000600281905550600060018190555060008060009054906101000a900473ffffffffffffffffffffffffffffffffffffffff1673ffffffffffffffffffffffffffffffffffffffff1682604051611ff4906139eb565b60006040518083038185875af1925050503d8060008114612031576040519150601f19603f3d011682016040523d82523d6000602084013e612036565b606091505b505090508061207a576040517f08c379a00000000000000000000000000000000000000000000000000000000081526004016120719061404e565b60405180910390fd5b60008054906101000a900473ffffffffffffffffffffffffffffffffffffffff1673ffffffffffffffffffffffffffffffffffffffff167f23d6711a1d031134a36921253c75aa59e967d38e369ac625992824315e204f20836040516120e09190612fce565b60405180910390a250506000600360166101000a81548160ff021916908315150217905550565b60008054906101000a900473ffffffffffffffffffffffffffffffffffffffff1673ffffffffffffffffffffffffffffffffffffffff163373ffffffffffffffffffffffffffffffffffffffff1614612195576040517f08c379a000000000000000000000000000000000000000000000000000000000815260040161218c90613609565b60405180910390fd5b600360169054906101000a900460ff16156121e5576040517f08c379a00000000000000000000000000000000000000000000000000000000081526004016121dc906137b9565b60405180910390fd5b6001600360166101000a81548160ff021916908315150217905550600060015411612245576040517f08c379a000000000000000000000000000000000000000000000000000000000815260040161223c906140ba565b60405180910390fd5b60006001549050674563918244f40000811115612297576040517f08c379a000000000000000000000000000000000000000000000000000000000815260040161228e9061399a565b60405180910390fd5b600060018190555060008060009054906101000a900473ffffffffffffffffffffffffffffffffffffffff1673ffffffffffffffffffffffffffffffffffffffff16826040516122e6906139eb565b60006040518083038185875af1925050503d8060008114612323576040519150601f19603f3d011682016040523d82523d6000602084013e612328565b606091505b505090508061236c576040517f08c379a000000000000000000000000000000000000000000000000000000000815260040161236390614126565b60405180910390fd5b7f5b3c42e6d289ed8fc272a51c0049c0eb46a1cb88c6a2e7f873b8e67d9ea0c72a8260405161239b9190612fce565b60405180910390a150506000600360166101000a81548160ff021916908315150217905550565b600360009054906101000a900460ff1615612412576040517f08c379a000000000000000000000000000000000000000000000000000000000815260040161240990613d7a565b60405180910390fd5b6040517f08c379a000000000000000000000000000000000000000000000000000000000815260040161244490613e0c565b60405180910390fd5b600360009054906101000a900460ff161561249d576040517f08c379a000000000000000000000000000000000000000000000000000000000815260040161249490613d7a565b60405180910390fd5b6040517f08c379a00000000000000000000000000000000000000000000000000000000081526004016124cf90613e0c565b60405180910390fd5b6000600560008373ffffffffffffffffffffffffffffffffffffffff1673ffffffffffffffffffffffffffffffffffffffff168152602001908152602001600020600001549050919050565b600360009054906101000a900460ff1615612574576040517f08c379a000000000000000000000000000000000000000000000000000000000815260040161256b90613d7a565b60405180910390fd5b6004600082600481111561258b5761258a6130c0565b5b600481111561259d5761259c6130c0565b5b8152602001908152602001600020546706f05b59d3b200008111156125f7576040517f08c379a00000000000000000000000000000000000000000000000000000000081526004016125ee90614192565b60405180910390fd5b600f600560003373ffffffffffffffffffffffffffffffffffffffff1673ffffffffffffffffffffffffffffffffffffffff168152602001908152602001600020600001546126469190612efb565b421015612688576040517f08c379a000000000000000000000000000000000000000000000000000000000815260040161267f906141fe565b60405180910390fd5b6000600460008460048111156126a1576126a06130c0565b5b60048111156126b3576126b26130c0565b5b8152602001908152602001600020549050803414612706576040517f08c379a00000000000000000000000000000000000000000000000000000000081526004016126fd9061426a565b60405180910390fd5b60006001436127159190613c8e565b409050600081423388604051602001612731949392919061428a565b6040516020818303038152906040528051906020012060001c9050600060038261275b9190613c5d565b600281111561276d5761276c6130c0565b5b905060008282893360405160200161278894939291906142d8565b6040516020818303038152906040528051906020012090506040518060e001604052806001436127b89190613c8e565b81526020014281526020018581526020018460001b81526020018360028111156127e5576127e46130c0565b5b81526020018960028111156127fd576127fc6130c0565b5b81526020013373ffffffffffffffffffffffffffffffffffffffff16815250600760008381526020019081526020016000206000820151816000015560208201518160010155604082015181600201556060820151816003015560808201518160040160006101000a81548160ff02191690836002811115612882576128816130c0565b5b021790555060a08201518160040160016101000a81548160ff021916908360028111156128b2576128b16130c0565b5b021790555060c08201518160040160026101000a81548173ffffffffffffffffffffffffffffffffffffffff021916908373ffffffffffffffffffffffffffffffffffffffff1602179055509050506060600061290f8a85612da5565b15612afd5760006064605c896129259190614326565b61292f9190614368565b8861293a9190612efb565b90506064605c8961294b9190614326565b6129559190614368565b9150600660003373ffffffffffffffffffffffffffffffffffffffff1673ffffffffffffffffffffffffffffffffffffffff16815260200190815260200160002060405180604001604052808381526020016000151581525090806001815401808255809150506001900390600052602060002090600202016000909190919091506000820151816000015560208201518160010160006101000a81548160ff02191690831515021790555050506064600389612a129190614326565b612a1c9190614368565b60016000828254612a2d9190612efb565b925050819055506064600789612a439190614326565b612a4d9190614368565b60026000828254612a5e9190612efb565b925050819055506001600560003373ffffffffffffffffffffffffffffffffffffffff1673ffffffffffffffffffffffffffffffffffffffff1681526020019081526020016000206001016000828254612ab89190612efb565b925050819055506040518060400160405280600381526020017f57696e0000000000000000000000000000000000000000000000000000000000815250925050612cfc565b836002811115612b1057612b0f6130c0565b5b8a6002811115612b2357612b226130c0565b5b03612c605760006064606289612b399190614326565b612b439190614368565b9050600660003373ffffffffffffffffffffffffffffffffffffffff1673ffffffffffffffffffffffffffffffffffffffff16815260200190815260200160002060405180604001604052808381526020016000151581525090806001815401808255809150506001900390600052602060002090600202016000909190919091506000820151816000015560208201518160010160006101000a81548160ff02191690831515021790555050506064600289612c009190614326565b612c0a9190614368565b60016000828254612c1b9190612efb565b925050819055506040518060400160405280600481526020017f4472617700000000000000000000000000000000000000000000000000000000815250925050612cfb565b6064600388612c6f9190614326565b612c799190614368565b60016000828254612c8a9190612efb565b925050819055506064606188612ca09190614326565b612caa9190614368565b60026000828254612cbb9190612efb565b925050819055506040518060400160405280600481526020017f4c6f73650000000000000000000000000000000000000000000000000000000081525091505b5b42600560003373ffffffffffffffffffffffffffffffffffffffff1673ffffffffffffffffffffffffffffffffffffffff168152602001908152602001600020600001819055503373ffffffffffffffffffffffffffffffffffffffff167fb255a6c45359d89ee98279294b71f55aa8efa4ff92254b4018051631adb98ea18b86858588604051612d91959493929190614399565b60405180910390a250505050505050505050565b6000806002811115612dba57612db96130c0565b5b836002811115612dcd57612dcc6130c0565b5b148015612dfd5750600280811115612de857612de76130c0565b5b826002811115612dfb57612dfa6130c0565b5b145b80612e5c575060016002811115612e1757612e166130c0565b5b836002811115612e2a57612e296130c0565b5b148015612e5b575060006002811115612e4657612e456130c0565b5b826002811115612e5957612e586130c0565b5b145b5b80612eba5750600280811115612e7557612e746130c0565b5b836002811115612e8857612e876130c0565b5b148015612eb9575060016002811115612ea457612ea36130c0565b5b826002811115612eb757612eb66130c0565b5b145b5b905092915050565b6000819050919050565b7f4e487b7100000000000000000000000000000000000000000000000000000000600052601160045260246000fd5b6000612f0682612ec2565b9150612f1183612ec2565b9250828201905080821115612f2957612f28612ecc565b5b92915050565b600080fd5b600073ffffffffffffffffffffffffffffffffffffffff82169050919050565b6000612f5f82612f34565b9050919050565b612f6f81612f54565b8114612f7a57600080fd5b50565b600081359050612f8c81612f66565b92915050565b600060208284031215612fa857612fa7612f2f565b5b6000612fb684828501612f7d565b91505092915050565b612fc881612ec2565b82525050565b6000602082019050612fe36000830184612fbf565b92915050565b60008115159050919050565b612ffe81612fe9565b811461300957600080fd5b50565b60008135905061301b81612ff5565b92915050565b60006020828403121561303757613036612f2f565b5b60006130458482850161300c565b91505092915050565b6000819050919050565b6130618161304e565b811461306c57600080fd5b50565b60008135905061307e81613058565b92915050565b60006020828403121561309a57613099612f2f565b5b60006130a88482850161306f565b91505092915050565b6130ba8161304e565b82525050565b7f4e487b7100000000000000000000000000000000000000000000000000000000600052602160045260246000fd5b60038110613100576130ff6130c0565b5b50565b6000819050613111826130ef565b919050565b600061312182613103565b9050919050565b61313181613116565b82525050565b61314081612f54565b82525050565b600060e08201905061315b600083018a612fbf565b6131686020830189612fbf565b61317560408301886130b1565b61318260608301876130b1565b61318f6080830186613128565b61319c60a0830185613128565b6131a960c0830184613137565b98975050505050505050565b60006020820190506131ca6000830184613137565b92915050565b600581106131dd57600080fd5b50565b6000813590506131ef816131d0565b92915050565b6131fe81612ec2565b811461320957600080fd5b50565b60008135905061321b816131f5565b92915050565b6000806040838503121561323857613237612f2f565b5b6000613246858286016131e0565b92505060206132578582860161320c565b9150509250929050565b6000806040838503121561327857613277612f2f565b5b600061328685828601612f7d565b92505060206132978582860161320c565b9150509250929050565b6132aa81612fe9565b82525050565b60006040820190506132c56000830185612fbf565b6132d260208301846132a1565b9392505050565b600081519050919050565b600082825260208201905092915050565b60005b838110156133135780820151818401526020810190506132f8565b60008484015250505050565b6000601f19601f8301169050919050565b600061333b826132d9565b61334581856132e4565b93506133558185602086016132f5565b61335e8161331f565b840191505092915050565b600060408201905061337e60008301856132a1565b81810360208301526133908184613330565b90509392505050565b6000602082840312156133af576133ae612f2f565b5b60006133bd848285016131e0565b91505092915050565b600060c0820190506133db6000830189612fbf565b6133e86020830188612fbf565b6133f56040830187613137565b6134026060830186613128565b61340f6080830185613128565b61341c60a08301846132a1565b979650505050505050565b600060208201905061343c60008301846132a1565b92915050565b6003811061344f57600080fd5b50565b60008135905061346181613442565b92915050565b6000806040838503121561347e5761347d612f2f565b5b600061348c85828601613452565b925050602061349d8582860161306f565b9150509250929050565b6000602082840312156134bd576134bc612f2f565b5b60006134cb8482850161320c565b91505092915050565b60006040820190506134e96000830185612fbf565b6134f66020830184612fbf565b9392505050565b6000806040838503121561351457613513612f2f565b5b60006135228582860161306f565b9250506020613533858286016131e0565b9150509250929050565b6000806040838503121561355457613553612f2f565b5b6000613562858286016131e0565b925050602061357385828601613452565b9150509250929050565b6000806040838503121561359457613593612f2f565b5b60006135a285828601613452565b92505060206135b3858286016131e0565b9150509250929050565b7f4e6f74206f776e65720000000000000000000000000000000000000000000000600082015250565b60006135f36009836132e4565b91506135fe826135bd565b602082019050919050565b60006020820190508181036000830152613622816135e6565b9050919050565b7f557067726164657320617265206e6f7420656e61626c65640000000000000000600082015250565b600061365f6018836132e4565b915061366a82613629565b602082019050919050565b6000602082019050818103600083015261368e81613652565b9050919050565b7f496e76616c696420696d706c656d656e746174696f6e20616464726573730000600082015250565b60006136cb601e836132e4565b91506136d682613695565b602082019050919050565b600060208201905081810360008301526136fa816136be565b9050919050565b7f53616d6520696d706c656d656e746174696f6e00000000000000000000000000600082015250565b60006137376013836132e4565b915061374282613701565b602082019050919050565b600060208201905081810360008301526137668161372a565b9050919050565b7f5265656e7472616e637947756172643a207265656e7472616e742063616c6c00600082015250565b60006137a3601f836132e4565b91506137ae8261376d565b602082019050919050565b600060208201905081810360008301526137d281613796565b9050919050565b7f4e487b7100000000000000000000000000000000000000000000000000000000600052603260045260246000fd5b600061381382612ec2565b91507fffffffffffffffffffffffffffffffffffffffffffffffffffffffffffffffff820361384557613844612ecc565b5b600182019050919050565b7f4e6f20756e636c61696d65642072657761726473000000000000000000000000600082015250565b60006138866014836132e4565b915061389182613850565b602082019050919050565b600060208201905081810360008301526138b581613879565b9050919050565b7f496e73756666696369656e742062616c616e6365000000000000000000000000600082015250565b60006138f26014836132e4565b91506138fd826138bc565b602082019050919050565b60006020820190508181036000830152613921816138e5565b9050919050565b7f416d6f756e742065786365656473206d6178696d756d2077697468647261776160008201527f6c00000000000000000000000000000000000000000000000000000000000000602082015250565b60006139846021836132e4565b915061398f82613928565b604082019050919050565b600060208201905081810360008301526139b381613977565b9050919050565b600081905092915050565b50565b60006139d56000836139ba565b91506139e0826139c5565b600082019050919050565b60006139f6826139c8565b9150819050919050565b7f436c61696d206661696c65640000000000000000000000000000000000000000600082015250565b6000613a36600c836132e4565b9150613a4182613a00565b602082019050919050565b60006020820190508181036000830152613a6581613a29565b9050919050565b7f416d6f756e742065786365656473206d6178696d756d20616c6c6f776564206260008201527f6574000000000000000000000000000000000000000000000000000000000000602082015250565b6000613ac86022836132e4565b9150613ad382613a6c565b604082019050919050565b60006020820190508181036000830152613af781613abb565b9050919050565b6000819050919050565b613b19613b148261304e565b613afe565b82525050565b6000819050919050565b613b3a613b3582612ec2565b613b1f565b82525050565b60008160601b9050919050565b6000613b5882613b40565b9050919050565b6000613b6a82613b4d565b9050919050565b613b82613b7d82612f54565b613b5f565b82525050565b60008160f81b9050919050565b6000613ba082613b88565b9050919050565b613bb8613bb382613116565b613b95565b82525050565b6000613bca8289613b08565b602082019150613bda8288613b29565b602082019150613bea8287613b29565b602082019150613bfa8286613b71565b601482019150613c0a8285613b29565b602082019150613c1a8284613ba7565b600182019150819050979650505050505050565b7f4e487b7100000000000000000000000000000000000000000000000000000000600052601260045260246000fd5b6000613c6882612ec2565b9150613c7383612ec2565b925082613c8357613c82613c2e565b5b828206905092915050565b6000613c9982612ec2565b9150613ca483612ec2565b9250828203905081811115613cbc57613cbb612ecc565b5b92915050565b7f47616d652070726f6f66206e6f7420666f756e64000000000000000000000000600082015250565b6000613cf86014836132e4565b9150613d0382613cc2565b602082019050919050565b60006020820190508181036000830152613d2781613ceb565b9050919050565b7f47616d6520697320706175736564000000000000000000000000000000000000600082015250565b6000613d64600e836132e4565b9150613d6f82613d2e565b602082019050919050565b60006020820190508181036000830152613d9381613d57565b9050919050565b7f546869732066756e6374696f6e20697320646570726563617465642e2055736560008201527f20706c617947616d6520696e73746561642e0000000000000000000000000000602082015250565b6000613df66032836132e4565b9150613e0182613d9a565b604082019050919050565b60006020820190508181036000830152613e2581613de9565b9050919050565b7f496e76616c696420696e64657800000000000000000000000000000000000000600082015250565b6000613e62600d836132e4565b9150613e6d82613e2c565b602082019050919050565b60006020820190508181036000830152613e9181613e55565b9050919050565b7f416c726561647920636c61696d65640000000000000000000000000000000000600082015250565b6000613ece600f836132e4565b9150613ed982613e98565b602082019050919050565b60006020820190508181036000830152613efd81613ec1565b9050919050565b7f47616d65206d75737420626520706175736564206265666f726520656d65726760008201527f656e6379207769746864726177616c0000000000000000000000000000000000602082015250565b6000613f60602f836132e4565b9150613f6b82613f04565b604082019050919050565b60006020820190508181036000830152613f8f81613f53565b9050919050565b7f4e6f2066756e647320746f207769746864726177000000000000000000000000600082015250565b6000613fcc6014836132e4565b9150613fd782613f96565b602082019050919050565b60006020820190508181036000830152613ffb81613fbf565b9050919050565b7f456d657267656e6379207769746864726177616c206661696c65640000000000600082015250565b6000614038601b836132e4565b915061404382614002565b602082019050919050565b600060208201905081810360008301526140678161402b565b9050919050565b7f4e6f206665657320746f20776974686472617700000000000000000000000000600082015250565b60006140a46013836132e4565b91506140af8261406e565b602082019050919050565b600060208201905081810360008301526140d381614097565b9050919050565b7f5769746864726177206661696c65640000000000000000000000000000000000600082015250565b6000614110600f836132e4565b915061411b826140da565b602082019050919050565b6000602082019050818103600083015261413f81614103565b9050919050565b7f4265742065786365656473206d6178696d756d20616c6c6f7765640000000000600082015250565b600061417c601b836132e4565b915061418782614146565b602082019050919050565b600060208201905081810360008301526141ab8161416f565b9050919050565b7f57616974206265666f726520706c6179696e6720616761696e00000000000000600082015250565b60006141e86019836132e4565b91506141f3826141b2565b602082019050919050565b60006020820190508181036000830152614217816141db565b9050919050565b7f496e636f72726563742045544820616d6f756e742073656e7400000000000000600082015250565b60006142546019836132e4565b915061425f8261421e565b602082019050919050565b6000602082019050818103600083015261428381614247565b9050919050565b60006142968287613b08565b6020820191506142a68286613b29565b6020820191506142b68285613b71565b6014820191506142c68284613ba7565b60018201915081905095945050505050565b60006142e48287613b29565b6020820191506142f48286613ba7565b6001820191506143048285613ba7565b6001820191506143148284613b71565b60148201915081905095945050505050565b600061433182612ec2565b915061433c83612ec2565b925082820261434a81612ec2565b9150828204841483151761436157614360612ecc565b5b5092915050565b600061437382612ec2565b915061437e83612ec2565b92508261438e5761438d613c2e565b5b828204905092915050565b600060a0820190506143ae6000830188613128565b6143bb6020830187613128565b81810360408301526143cd8186613330565b90506143dc6060830185612fbf565b6143e960808301846130b1565b969550505050505056fe426c6f636b20746f6f206f6c6420746f2066756c6c79207665726966792c206275742070726f6f6620657869737473a2646970667358221220e03bee2c365880188ae1cbbefb41821c1fb0a46a5bde9e3a7d8f6bd3766bdca564736f6c63430008140033",
  "linkReferences": {},
  "deployedLinkReferences": {}
}