{
  "_format": "hh-sol-artifact-1",
  "contractName": "RockPaperScissors",
  "sourceName": "contracts/RockPaperScissors.sol",
  "abi": [
    {
      "inputs": [],
      "stateMutability": "nonpayable",
      "type": "constructor"
    },
    {
      "anonymous": false,
      "inputs": [
        {
          "indexed": false,
          "internalType": "uint256",
          "name": "amount",
          "type": "uint256"
        }
      ],
      "name": "CreatorFeesWithdrawn",
      "type": "event"
    },
    {
      "anonymous": false,
      "inputs": [
        {
          "indexed": true,
          "internalType": "address",
          "name": "player",
          "type": "address"
        },
        {
          "indexed": false,
          "internalType": "enum RockPaperScissors.Move",
          "name": "playerMove",
          "type": "uint8"
        },
        {
          "indexed": false,
          "internalType": "enum RockPaperScissors.Move",
          "name": "contractMove",
          "type": "uint8"
        },
        {
          "indexed": false,
          "internalType": "string",
          "name": "result",
          "type": "string"
        },
        {
          "indexed": false,
          "internalType": "uint256",
          "name": "netWin",
          "type": "uint256"
        }
      ],
      "name": "GamePlayed",
      "type": "event"
    },
    {
      "anonymous": false,
      "inputs": [
        {
          "indexed": false,
          "internalType": "bool",
          "name": "status",
          "type": "bool"
        }
      ],
      "name": "Paused",
      "type": "event"
    },
    {
      "anonymous": false,
      "inputs": [
        {
          "indexed": true,
          "internalType": "address",
          "name": "player",
          "type": "address"
        },
        {
          "indexed": false,
          "internalType": "uint256",
          "name": "index",
          "type": "uint256"
        },
        {
          "indexed": false,
          "internalType": "uint256",
          "name": "amount",
          "type": "uint256"
        }
      ],
      "name": "RewardClaimed",
      "type": "event"
    },
    {
      "inputs": [],
      "name": "COOLDOWN",
      "outputs": [
        {
          "internalType": "uint256",
          "name": "",
          "type": "uint256"
        }
      ],
      "stateMutability": "view",
      "type": "function"
    },
    {
      "inputs": [],
      "name": "claimAllRewards",
      "outputs": [],
      "stateMutability": "nonpayable",
      "type": "function"
    },
    {
      "inputs": [
        {
          "internalType": "uint256",
          "name": "index",
          "type": "uint256"
        }
      ],
      "name": "claimReward",
      "outputs": [],
      "stateMutability": "nonpayable",
      "type": "function"
    },
    {
      "inputs": [
        {
          "internalType": "bytes32",
          "name": "moveHash",
          "type": "bytes32"
        },
        {
          "internalType": "enum RockPaperScissors.BetTier",
          "name": "tier",
          "type": "uint8"
        }
      ],
      "name": "commitMove",
      "outputs": [],
      "stateMutability": "payable",
      "type": "function"
    },
    {
      "inputs": [],
      "name": "creatorFees",
      "outputs": [
        {
          "internalType": "uint256",
          "name": "",
          "type": "uint256"
        }
      ],
      "stateMutability": "view",
      "type": "function"
    },
    {
      "inputs": [],
      "name": "gameBank",
      "outputs": [
        {
          "internalType": "uint256",
          "name": "",
          "type": "uint256"
        }
      ],
      "stateMutability": "view",
      "type": "function"
    },
    {
      "inputs": [],
      "name": "getGameBank",
      "outputs": [
        {
          "internalType": "uint256",
          "name": "",
          "type": "uint256"
        }
      ],
      "stateMutability": "view",
      "type": "function"
    },
    {
      "inputs": [
        {
          "internalType": "address",
          "name": "player",
          "type": "address"
        }
      ],
      "name": "getPendingRewardCount",
      "outputs": [
        {
          "internalType": "uint256",
          "name": "",
          "type": "uint256"
        }
      ],
      "stateMutability": "view",
      "type": "function"
    },
    {
      "inputs": [],
      "name": "isPaused",
      "outputs": [
        {
          "internalType": "bool",
          "name": "",
          "type": "bool"
        }
      ],
      "stateMutability": "view",
      "type": "function"
    },
    {
      "inputs": [
        {
          "internalType": "address",
          "name": "player",
          "type": "address"
        }
      ],
      "name": "lastPlayTimestamp",
      "outputs": [
        {
          "internalType": "uint256",
          "name": "",
          "type": "uint256"
        }
      ],
      "stateMutability": "view",
      "type": "function"
    },
    {
      "inputs": [],
      "name": "owner",
      "outputs": [
        {
          "internalType": "address",
          "name": "",
          "type": "address"
        }
      ],
      "stateMutability": "view",
      "type": "function"
    },
    {
      "inputs": [
        {
          "internalType": "address",
          "name": "",
          "type": "address"
        },
        {
          "internalType": "uint256",
          "name": "",
          "type": "uint256"
        }
      ],
      "name": "pendingRewards",
      "outputs": [
        {
          "internalType": "uint256",
          "name": "amount",
          "type": "uint256"
        },
        {
          "internalType": "bool",
          "name": "claimed",
          "type": "bool"
        }
      ],
      "stateMutability": "view",
      "type": "function"
    },
    {
      "inputs": [
        {
          "internalType": "enum RockPaperScissors.BetTier",
          "name": "tier",
          "type": "uint8"
        },
        {
          "internalType": "enum RockPaperScissors.Move",
          "name": "playerMove",
          "type": "uint8"
        }
      ],
      "name": "play",
      "outputs": [],
      "stateMutability": "payable",
      "type": "function"
    },
    {
      "inputs": [
        {
          "internalType": "enum RockPaperScissors.Move",
          "name": "playerMove",
          "type": "uint8"
        },
        {
          "internalType": "enum RockPaperScissors.BetTier",
          "name": "tier",
          "type": "uint8"
        }
      ],
      "name": "playGame",
      "outputs": [],
      "stateMutability": "payable",
      "type": "function"
    },
    {
      "inputs": [
        {
          "internalType": "address",
          "name": "",
          "type": "address"
        }
      ],
      "name": "playerStats",
      "outputs": [
        {
          "internalType": "uint256",
          "name": "lastPlayTime",
          "type": "uint256"
        },
        {
          "internalType": "uint256",
          "name": "totalWins",
          "type": "uint256"
        }
      ],
      "stateMutability": "view",
      "type": "function"
    },
    {
      "inputs": [
        {
          "internalType": "address",
          "name": "player",
          "type": "address"
        }
      ],
      "name": "playerTotalWins",
      "outputs": [
        {
          "internalType": "uint256",
          "name": "",
          "type": "uint256"
        }
      ],
      "stateMutability": "view",
      "type": "function"
    },
    {
      "inputs": [
        {
          "internalType": "enum RockPaperScissors.Move",
          "name": "playerMove",
          "type": "uint8"
        },
        {
          "internalType": "bytes32",
          "name": "salt",
          "type": "bytes32"
        }
      ],
      "name": "revealMove",
      "outputs": [],
      "stateMutability": "nonpayable",
      "type": "function"
    },
    {
      "inputs": [
        {
          "internalType": "bool",
          "name": "_paused",
          "type": "bool"
        }
      ],
      "name": "setPaused",
      "outputs": [],
      "stateMutability": "nonpayable",
      "type": "function"
    },
    {
      "inputs": [
        {
          "internalType": "enum RockPaperScissors.BetTier",
          "name": "",
          "type": "uint8"
        }
      ],
      "name": "tierToAmount",
      "outputs": [
        {
          "internalType": "uint256",
          "name": "",
          "type": "uint256"
        }
      ],
      "stateMutability": "view",
      "type": "function"
    },
    {
      "inputs": [],
      "name": "withdrawCreatorFees",
      "outputs": [],
      "stateMutability": "nonpayable",
      "type": "function"
    },
    {
      "stateMutability": "payable",
      "type": "receive"
    }
  ],
  "bytecode": "0x60806040526000600360006101000a81548160ff0219169083151502179055503480156200002c57600080fd5b50336000806101000a81548173ffffffffffffffffffffffffffffffffffffffff021916908373ffffffffffffffffffffffffffffffffffffffff1602179055506611c37937e08000600460008060048111156200008f576200008e620001e4565b5b6004811115620000a457620000a3620001e4565b5b815260200190815260200160002081905550662386f26fc100006004600060016004811115620000d957620000d8620001e4565b5b6004811115620000ee57620000ed620001e4565b5b8152602001908152602001600020819055506658d15e176280006004600060026004811115620001235762000122620001e4565b5b6004811115620001385762000137620001e4565b5b81526020019081526020016000208190555066b1a2bc2ec5000060046000600360048111156200016d576200016c620001e4565b5b6004811115620001825762000181620001e4565b5b81526020019081526020016000208190555067016345785d8a000060046000600480811115620001b757620001b6620001e4565b5b6004811115620001cc57620001cb620001e4565b5b81526020019081526020016000208190555062000213565b7f4e487b7100000000000000000000000000000000000000000000000000000000600052602160045260246000fd5b61265f80620002236000396000f3fe6080604052600436106101235760003560e01c8063ae169a50116100a0578063e1cd04b411610064578063e1cd04b4146103f6578063e7c435a71461040d578063e802c36f14610429578063e8f4d28d14610445578063ed7ec749146104825761012a565b8063ae169a50146102fc578063b187bd2614610325578063c85e349914610350578063c97a0dd01461037b578063cdafbbb6146103b85761012a565b806377422035116100e757806377422035146102035780638da5cb5b146102405780639ad30f6d1461026b578063a2724a4d146102a8578063a8f7d442146102d35761012a565b80630b83a7271461012f57806316c38b3c146101465780635e0fd43c1461016f5780636099ecb21461019a5780636694ba61146101d85761012a565b3661012a57005b600080fd5b34801561013b57600080fd5b5061014461049e565b005b34801561015257600080fd5b5061016d6004803603810190610168919061184c565b610752565b005b34801561017b57600080fd5b50610184610834565b6040516101919190611892565b60405180910390f35b3480156101a657600080fd5b506101c160048036038101906101bc9190611937565b61083e565b6040516101cf929190611986565b60405180910390f35b3480156101e457600080fd5b506101ed61088c565b6040516101fa9190611892565b60405180910390f35b34801561020f57600080fd5b5061022a600480360381019061022591906119d4565b610892565b6040516102379190611892565b60405180910390f35b34801561024c57600080fd5b506102556108aa565b6040516102629190611a10565b60405180910390f35b34801561027757600080fd5b50610292600480360381019061028d9190611a2b565b6108ce565b60405161029f9190611892565b60405180910390f35b3480156102b457600080fd5b506102bd61091a565b6040516102ca9190611892565b60405180910390f35b3480156102df57600080fd5b506102fa60048036038101906102f59190611ab3565b61091f565b005b34801561030857600080fd5b50610323600480360381019061031e9190611af3565b6109aa565b005b34801561033157600080fd5b5061033a610c50565b6040516103479190611b20565b60405180910390f35b34801561035c57600080fd5b50610365610c63565b6040516103729190611892565b60405180910390f35b34801561038757600080fd5b506103a2600480360381019061039d9190611a2b565b610c69565b6040516103af9190611892565b60405180910390f35b3480156103c457600080fd5b506103df60048036038101906103da9190611a2b565b610cb5565b6040516103ed929190611b3b565b60405180910390f35b34801561040257600080fd5b5061040b610cd9565b005b61042760048036038101906104229190611b64565b610ec3565b005b610443600480360381019061043e9190611ba4565b610f4e565b005b34801561045157600080fd5b5061046c60048036038101906104679190611a2b565b610fd9565b6040516104799190611892565b60405180910390f35b61049c60048036038101906104979190611be4565b611025565b005b6000600660003373ffffffffffffffffffffffffffffffffffffffff1673ffffffffffffffffffffffffffffffffffffffff16815260200190815260200160002090506000805b82805490508110156105aa5782818154811061050457610503611c24565b5b906000526020600020906002020160010160009054906101000a900460ff166105975782818154811061053a57610539611c24565b5b906000526020600020906002020160000154826105579190611c82565b9150600183828154811061056e5761056d611c24565b5b906000526020600020906002020160010160006101000a81548160ff0219169083151502179055505b80806105a290611cb6565b9150506104e5565b50600081116105ee576040517f08c379a00000000000000000000000000000000000000000000000000000000081526004016105e590611d5b565b60405180910390fd5b80471015610631576040517f08c379a000000000000000000000000000000000000000000000000000000000815260040161062890611dc7565b60405180910390fd5b60003373ffffffffffffffffffffffffffffffffffffffff168260405161065790611e18565b60006040518083038185875af1925050503d8060008114610694576040519150601f19603f3d011682016040523d82523d6000602084013e610699565b606091505b50509050806106dd576040517f08c379a00000000000000000000000000000000000000000000000000000000081526004016106d490611e79565b60405180910390fd5b3373ffffffffffffffffffffffffffffffffffffffff167ff01da32686223933d8a18a391060918c7f11a3648639edd87ae013e2e27317437fffffffffffffffffffffffffffffffffffffffffffffffffffffffffffffffff84604051610745929190611b3b565b60405180910390a2505050565b60008054906101000a900473ffffffffffffffffffffffffffffffffffffffff1673ffffffffffffffffffffffffffffffffffffffff163373ffffffffffffffffffffffffffffffffffffffff16146107e0576040517f08c379a00000000000000000000000000000000000000000000000000000000081526004016107d790611ee5565b60405180910390fd5b80600360006101000a81548160ff0219169083151502179055507f0e2fb031ee032dc02d8011dc50b816eb450cf856abd8261680dac74f72165bd2816040516108299190611b20565b60405180910390a150565b6000600254905090565b6006602052816000526040600020818154811061085a57600080fd5b9060005260206000209060020201600091509150508060000154908060010160009054906101000a900460ff16905082565b60015481565b60046020528060005260406000206000915090505481565b60008054906101000a900473ffffffffffffffffffffffffffffffffffffffff1681565b6000600560008373ffffffffffffffffffffffffffffffffffffffff1673ffffffffffffffffffffffffffffffffffffffff168152602001908152602001600020600101549050919050565b600f81565b600360009054906101000a900460ff161561096f576040517f08c379a000000000000000000000000000000000000000000000000000000000815260040161096690611f51565b60405180910390fd5b6040517f08c379a00000000000000000000000000000000000000000000000000000000081526004016109a190611fe3565b60405180910390fd5b600660003373ffffffffffffffffffffffffffffffffffffffff1673ffffffffffffffffffffffffffffffffffffffff168152602001908152602001600020805490508110610a2e576040517f08c379a0000000000000000000000000000000000000000000000000000000008152600401610a259061204f565b60405180910390fd5b6000600660003373ffffffffffffffffffffffffffffffffffffffff1673ffffffffffffffffffffffffffffffffffffffff1681526020019081526020016000208281548110610a8157610a80611c24565b5b906000526020600020906002020190508060010160009054906101000a900460ff1615610ae3576040517f08c379a0000000000000000000000000000000000000000000000000000000008152600401610ada906120bb565b60405180910390fd5b8060000154471015610b2a576040517f08c379a0000000000000000000000000000000000000000000000000000000008152600401610b2190611dc7565b60405180910390fd5b60018160010160006101000a81548160ff02191690831515021790555060003373ffffffffffffffffffffffffffffffffffffffff168260000154604051610b7190611e18565b60006040518083038185875af1925050503d8060008114610bae576040519150601f19603f3d011682016040523d82523d6000602084013e610bb3565b606091505b5050905080610bf7576040517f08c379a0000000000000000000000000000000000000000000000000000000008152600401610bee90611e79565b60405180910390fd5b3373ffffffffffffffffffffffffffffffffffffffff167ff01da32686223933d8a18a391060918c7f11a3648639edd87ae013e2e2731743848460000154604051610c43929190611b3b565b60405180910390a2505050565b600360009054906101000a900460ff1681565b60025481565b6000600660008373ffffffffffffffffffffffffffffffffffffffff1673ffffffffffffffffffffffffffffffffffffffff168152602001908152602001600020805490509050919050565b60056020528060005260406000206000915090508060000154908060010154905082565b60008054906101000a900473ffffffffffffffffffffffffffffffffffffffff1673ffffffffffffffffffffffffffffffffffffffff163373ffffffffffffffffffffffffffffffffffffffff1614610d67576040517f08c379a0000000000000000000000000000000000000000000000000000000008152600401610d5e90611ee5565b60405180910390fd5b600060015411610dac576040517f08c379a0000000000000000000000000000000000000000000000000000000008152600401610da390612127565b60405180910390fd5b60006001549050600060018190555060008060009054906101000a900473ffffffffffffffffffffffffffffffffffffffff1673ffffffffffffffffffffffffffffffffffffffff1682604051610e0290611e18565b60006040518083038185875af1925050503d8060008114610e3f576040519150601f19603f3d011682016040523d82523d6000602084013e610e44565b606091505b5050905080610e88576040517f08c379a0000000000000000000000000000000000000000000000000000000008152600401610e7f90612193565b60405180910390fd5b7f5b3c42e6d289ed8fc272a51c0049c0eb46a1cb88c6a2e7f873b8e67d9ea0c72a82604051610eb79190611892565b60405180910390a15050565b600360009054906101000a900460ff1615610f13576040517f08c379a0000000000000000000000000000000000000000000000000000000008152600401610f0a90611f51565b60405180910390fd5b6040517f08c379a0000000000000000000000000000000000000000000000000000000008152600401610f4590611fe3565b60405180910390fd5b600360009054906101000a900460ff1615610f9e576040517f08c379a0000000000000000000000000000000000000000000000000000000008152600401610f9590611f51565b60405180910390fd5b6040517f08c379a0000000000000000000000000000000000000000000000000000000008152600401610fd090611fe3565b60405180910390fd5b6000600560008373ffffffffffffffffffffffffffffffffffffffff1673ffffffffffffffffffffffffffffffffffffffff168152602001908152602001600020600001549050919050565b600360009054906101000a900460ff1615611075576040517f08c379a000000000000000000000000000000000000000000000000000000000815260040161106c90611f51565b60405180910390fd5b600f600560003373ffffffffffffffffffffffffffffffffffffffff1673ffffffffffffffffffffffffffffffffffffffff168152602001908152602001600020600001546110c49190611c82565b421015611106576040517f08c379a00000000000000000000000000000000000000000000000000000000081526004016110fd906121ff565b60405180910390fd5b60006004600083600481111561111f5761111e61221f565b5b60048111156111315761113061221f565b5b8152602001908152602001600020549050803414611184576040517f08c379a000000000000000000000000000000000000000000000000000000000815260040161117b9061229a565b60405180910390fd5b606460c08261119391906122ba565b61119d919061232b565b4710156111df576040517f08c379a00000000000000000000000000000000000000000000000000000000081526004016111d6906123a8565b60405180910390fd5b60006111e9611689565b9050606060006111f986846116f2565b156113e75760006064605c8661120f91906122ba565b611219919061232b565b856112249190611c82565b90506064605c8661123591906122ba565b61123f919061232b565b9150600660003373ffffffffffffffffffffffffffffffffffffffff1673ffffffffffffffffffffffffffffffffffffffff16815260200190815260200160002060405180604001604052808381526020016000151581525090806001815401808255809150506001900390600052602060002090600202016000909190919091506000820151816000015560208201518160010160006101000a81548160ff021916908315150217905550505060646003866112fc91906122ba565b611306919061232b565b600160008282546113179190611c82565b92505081905550606460078661132d91906122ba565b611337919061232b565b600260008282546113489190611c82565b925050819055506001600560003373ffffffffffffffffffffffffffffffffffffffff1673ffffffffffffffffffffffffffffffffffffffff16815260200190815260200160002060010160008282546113a29190611c82565b925050819055506040518060400160405280600381526020017f57696e00000000000000000000000000000000000000000000000000000000008152509250506115e6565b8260028111156113fa576113f961221f565b5b86600281111561140d5761140c61221f565b5b0361154a576000606460628661142391906122ba565b61142d919061232b565b9050600660003373ffffffffffffffffffffffffffffffffffffffff1673ffffffffffffffffffffffffffffffffffffffff16815260200190815260200160002060405180604001604052808381526020016000151581525090806001815401808255809150506001900390600052602060002090600202016000909190919091506000820151816000015560208201518160010160006101000a81548160ff021916908315150217905550505060646002866114ea91906122ba565b6114f4919061232b565b600160008282546115059190611c82565b925050819055506040518060400160405280600481526020017f44726177000000000000000000000000000000000000000000000000000000008152509250506115e5565b606460038561155991906122ba565b611563919061232b565b600160008282546115749190611c82565b92505081905550606460618561158a91906122ba565b611594919061232b565b600260008282546115a59190611c82565b925050819055506040518060400160405280600481526020017f4c6f73650000000000000000000000000000000000000000000000000000000081525091505b5b42600560003373ffffffffffffffffffffffffffffffffffffffff1673ffffffffffffffffffffffffffffffffffffffff168152602001908152602001600020600001819055503373ffffffffffffffffffffffffffffffffffffffff167fe5c3e387aa1594ca856663a12a5370731660cabf175ce61215d737216a0aaf2487858585604051611679949392919061248f565b60405180910390a2505050505050565b60008060014361169991906124db565b40444233476040516020016116b2959493929190612599565b6040516020818303038152906040528051906020012060001c90506003816116da91906125f8565b60028111156116ec576116eb61221f565b5b91505090565b60008060028111156117075761170661221f565b5b83600281111561171a5761171961221f565b5b14801561174a57506002808111156117355761173461221f565b5b8260028111156117485761174761221f565b5b145b806117a95750600160028111156117645761176361221f565b5b8360028111156117775761177661221f565b5b1480156117a85750600060028111156117935761179261221f565b5b8260028111156117a6576117a561221f565b5b145b5b8061180757506002808111156117c2576117c161221f565b5b8360028111156117d5576117d461221f565b5b1480156118065750600160028111156117f1576117f061221f565b5b8260028111156118045761180361221f565b5b145b5b905092915050565b600080fd5b60008115159050919050565b61182981611814565b811461183457600080fd5b50565b60008135905061184681611820565b92915050565b6000602082840312156118625761186161180f565b5b600061187084828501611837565b91505092915050565b6000819050919050565b61188c81611879565b82525050565b60006020820190506118a76000830184611883565b92915050565b600073ffffffffffffffffffffffffffffffffffffffff82169050919050565b60006118d8826118ad565b9050919050565b6118e8816118cd565b81146118f357600080fd5b50565b600081359050611905816118df565b92915050565b61191481611879565b811461191f57600080fd5b50565b6000813590506119318161190b565b92915050565b6000806040838503121561194e5761194d61180f565b5b600061195c858286016118f6565b925050602061196d85828601611922565b9150509250929050565b61198081611814565b82525050565b600060408201905061199b6000830185611883565b6119a86020830184611977565b9392505050565b600581106119bc57600080fd5b50565b6000813590506119ce816119af565b92915050565b6000602082840312156119ea576119e961180f565b5b60006119f8848285016119bf565b91505092915050565b611a0a816118cd565b82525050565b6000602082019050611a256000830184611a01565b92915050565b600060208284031215611a4157611a4061180f565b5b6000611a4f848285016118f6565b91505092915050565b60038110611a6557600080fd5b50565b600081359050611a7781611a58565b92915050565b6000819050919050565b611a9081611a7d565b8114611a9b57600080fd5b50565b600081359050611aad81611a87565b92915050565b60008060408385031215611aca57611ac961180f565b5b6000611ad885828601611a68565b9250506020611ae985828601611a9e565b9150509250929050565b600060208284031215611b0957611b0861180f565b5b6000611b1784828501611922565b91505092915050565b6000602082019050611b356000830184611977565b92915050565b6000604082019050611b506000830185611883565b611b5d6020830184611883565b9392505050565b60008060408385031215611b7b57611b7a61180f565b5b6000611b8985828601611a9e565b9250506020611b9a858286016119bf565b9150509250929050565b60008060408385031215611bbb57611bba61180f565b5b6000611bc9858286016119bf565b9250506020611bda85828601611a68565b9150509250929050565b60008060408385031215611bfb57611bfa61180f565b5b6000611c0985828601611a68565b9250506020611c1a858286016119bf565b9150509250929050565b7f4e487b7100000000000000000000000000000000000000000000000000000000600052603260045260246000fd5b7f4e487b7100000000000000000000000000000000000000000000000000000000600052601160045260246000fd5b6000611c8d82611879565b9150611c9883611879565b9250828201905080821115611cb057611caf611c53565b5b92915050565b6000611cc182611879565b91507fffffffffffffffffffffffffffffffffffffffffffffffffffffffffffffffff8203611cf357611cf2611c53565b5b600182019050919050565b600082825260208201905092915050565b7f4e6f20756e636c61696d65642072657761726473000000000000000000000000600082015250565b6000611d45601483611cfe565b9150611d5082611d0f565b602082019050919050565b60006020820190508181036000830152611d7481611d38565b9050919050565b7f496e73756666696369656e742062616c616e6365000000000000000000000000600082015250565b6000611db1601483611cfe565b9150611dbc82611d7b565b602082019050919050565b60006020820190508181036000830152611de081611da4565b9050919050565b600081905092915050565b50565b6000611e02600083611de7565b9150611e0d82611df2565b600082019050919050565b6000611e2382611df5565b9150819050919050565b7f436c61696d206661696c65640000000000000000000000000000000000000000600082015250565b6000611e63600c83611cfe565b9150611e6e82611e2d565b602082019050919050565b60006020820190508181036000830152611e9281611e56565b9050919050565b7f4e6f74206f776e65720000000000000000000000000000000000000000000000600082015250565b6000611ecf600983611cfe565b9150611eda82611e99565b602082019050919050565b60006020820190508181036000830152611efe81611ec2565b9050919050565b7f47616d6520697320706175736564000000000000000000000000000000000000600082015250565b6000611f3b600e83611cfe565b9150611f4682611f05565b602082019050919050565b60006020820190508181036000830152611f6a81611f2e565b9050919050565b7f546869732066756e6374696f6e20697320646570726563617465642e2055736560008201527f20706c617947616d6520696e73746561642e0000000000000000000000000000602082015250565b6000611fcd603283611cfe565b9150611fd882611f71565b604082019050919050565b60006020820190508181036000830152611ffc81611fc0565b9050919050565b7f496e76616c696420696e64657800000000000000000000000000000000000000600082015250565b6000612039600d83611cfe565b915061204482612003565b602082019050919050565b600060208201905081810360008301526120688161202c565b9050919050565b7f416c726561647920636c61696d65640000000000000000000000000000000000600082015250565b60006120a5600f83611cfe565b91506120b08261206f565b602082019050919050565b600060208201905081810360008301526120d481612098565b9050919050565b7f4e6f206665657320746f20776974686472617700000000000000000000000000600082015250565b6000612111601383611cfe565b915061211c826120db565b602082019050919050565b6000602082019050818103600083015261214081612104565b9050919050565b7f5769746864726177206661696c65640000000000000000000000000000000000600082015250565b600061217d600f83611cfe565b915061218882612147565b602082019050919050565b600060208201905081810360008301526121ac81612170565b9050919050565b7f57616974206265666f726520706c6179696e6720616761696e00000000000000600082015250565b60006121e9601983611cfe565b91506121f4826121b3565b602082019050919050565b60006020820190508181036000830152612218816121dc565b9050919050565b7f4e487b7100000000000000000000000000000000000000000000000000000000600052602160045260246000fd5b7f496e636f72726563742045544820616d6f756e742073656e7400000000000000600082015250565b6000612284601983611cfe565b915061228f8261224e565b602082019050919050565b600060208201905081810360008301526122b381612277565b9050919050565b60006122c582611879565b91506122d083611879565b92508282026122de81611879565b915082820484148315176122f5576122f4611c53565b5b5092915050565b7f4e487b7100000000000000000000000000000000000000000000000000000000600052601260045260246000fd5b600061233682611879565b915061234183611879565b925082612351576123506122fc565b5b828204905092915050565b7f4e6f7420656e6f7567682062616c616e636520746f207061792077696e000000600082015250565b6000612392601d83611cfe565b915061239d8261235c565b602082019050919050565b600060208201905081810360008301526123c181612385565b9050919050565b600381106123d9576123d861221f565b5b50565b60008190506123ea826123c8565b919050565b60006123fa826123dc565b9050919050565b61240a816123ef565b82525050565b600081519050919050565b60005b8381101561243957808201518184015260208101905061241e565b60008484015250505050565b6000601f19601f8301169050919050565b600061246182612410565b61246b8185611cfe565b935061247b81856020860161241b565b61248481612445565b840191505092915050565b60006080820190506124a46000830187612401565b6124b16020830186612401565b81810360408301526124c38185612456565b90506124d26060830184611883565b95945050505050565b60006124e682611879565b91506124f183611879565b925082820390508181111561250957612508611c53565b5b92915050565b6000819050919050565b61252a61252582611a7d565b61250f565b82525050565b6000819050919050565b61254b61254682611879565b612530565b82525050565b60008160601b9050919050565b600061256982612551565b9050919050565b600061257b8261255e565b9050919050565b61259361258e826118cd565b612570565b82525050565b60006125a58288612519565b6020820191506125b5828761253a565b6020820191506125c5828661253a565b6020820191506125d58285612582565b6014820191506125e5828461253a565b6020820191508190509695505050505050565b600061260382611879565b915061260e83611879565b92508261261e5761261d6122fc565b5b82820690509291505056fea26469706673582212202fc5f69ba90e032bc823c54d4ec6bc5f846a0106732097e05f331ef5987a4c8b64736f6c63430008140033",
  "linkReferences": {},
  "deployedLinkReferences": {}
}